:1000000012C02CC02BC02AC029C028C027C026C0BF
:1000100025C024C023C022C021C020C01FC01EC0D4
:100020001DC01CC01BC011241FBECFE5D4E0DEBF25
:10003000CDBF10E0A0E6B0E0EAE1F2E002C005903A
:100040000D92A036B107D9F710E0A0E6B0E001C0EC
:100050001D92A036B107E1F7C4D0DDC0D1CF18BAE8
:1000600082BBC19A87EA91E60197F1F700C00000D0
:1000700018BA089591E098BB82BBC19AE7EAF1E60D
:100080003197F1F700C0000098BB089588E390E035
:10009000E6DF86E090E0E3DF8EE090E0E0DF81E005
:1000A00090E0DDDF0895EF92FF920F931F93CF93BF
:1000B000DF938C018A30910550F4C1E0D0E0202F0D
:1000C000012F0F2EFAE0EF2EFF24F02D18C0C1E013
:1000D000D0E0EAE0F0E09E01220F331FCC0FDD1FDD
:1000E000CC0FDD1FCC0FDD1FC20FD31FBF017FD090
:1000F000CB016A30710578F7209709F710C0822F7D
:10010000902FBE0174D0182F092FCB01C096B2DFFB
:10011000212FCE01B7016BD0EB01209781F7DF9142
:10012000CF911F910F91FF90EF90089585E083BFCD
:1001300080E382BF08B600FEFDCF81E088BF08954E
:10014000CF93DF93CFE1D0E0F1DF2197E9F7DF91A3
:10015000CF910895AF92BF92CF92DF92EF92FF922C
:100160000F931F93CF93DF93EE24FF24AA24BB2485
:10017000DA2CCB2C81E090E072DF850181E090E009
:100180006EDFCD2DDC2DC7018EDF8AE390E072DFBC
:10019000C80189DF8AE390E06DDFCE0184DF80E86B
:1001A00090E05DDF8CE090E05ADFCADF2196CC332F
:1001B000D10549F70F5F1F4F0C331105F9F608946D
:1001C000E11CF11C8CE3E816F104A1F6DF91CF915C
:1001D0001F910F91FF90EF90DF90CF90BF90AF9065
:1001E00008958FEF81BB87BB51DFB4DFFDCFAA1B22
:1001F000BB1B51E107C0AA1FBB1FA617B70710F012
:10020000A61BB70B881F991F5A95A9F78095909543
:0A021000BC01CD010895F894FFCF62
:00000001FF
