:1000000012C02CC02BC02AC029C028C027C026C0BF
:1000100025C024C023C022C021C020C01FC01EC0D4
:100020001DC01CC01BC011241FBECFE5D4E0DEBF25
:10003000CDBF10E0A0E6B0E0E6E3F1E002C005903D
:100040000D92A036B107D9F710E0A0E6B0E001C0EC
:100050001D92A036B107E1F726D06BC0D1CF18BAF8
:1000600082BBC19A87EA91E60197F1F700C00000D0
:1000700018BA089591E098BB82BBC19AE7EAF1E60D
:100080003197F1F700C0000098BB089588E390E035
:10009000E6DF86E090E0E3DF8EE090E0E0DF81E005
:1000A00090E0DDDF0895EF92FF920F931F93CF93BF
:1000B000DF93CDB7DEB72D970FB6F894DEBF0FBE36
:1000C000CDBF7E010894E11CF11C8DE0F701119277
:1000D0008A95E9F782E489839FE49A838B8380E29F
:1000E0008C8384E48D8389E58E838CE48F8381E423
:1000F00088878EE489878FEF81BB87BBC7DF8E013E
:10010000055F1F4FF70181917F0190E0B3DFE0169B
:10011000F106C1F780E090E02D960FB6F894DEBFAF
:100120000FBECDBFDF91CF911F910F91FF90EF9048
:060130000895F894FFCFD2
:00000001FF
