:1000000012C02CC02BC02AC029C028C027C026C0BF
:1000100025C024C023C022C021C020C01FC01EC0D4
:100020001DC01CC01BC011241FBECFE5D4E0DEBF25
:10003000CDBF10E0A0E6B0E0E2ECF0E002C0059039
:100040000D92A437B107D9F710E0A4E7B0E001C0E2
:100050001D92A437B107E1F702D031C0D1CFCF93C1
:10006000DF93CDB7DEB764970FB6F894DEBF0FBE4F
:10007000CDBFDE011196E0E6F0E024E101900D92A3
:100080002150E1F717BA2FEF21BB4EEF20E030E00F
:1000900001C0C90148BBB09B0EC0FC01EE0FFF1FA1
:1000A00061E070E06C0F7D1FE60FF71F508152BBBF
:1000B0000196B099FECF8A3091055CF7EBCFF894AA
:0200C000FFCF70
:1000C2003F0006005B004F0066006D007D000700E8
:0400D2007F00670044
:00000001FF
