:1000000012C02CC02BC02AC029C028C027C026C0BF
:1000100025C024C023C022C021C020C01FC01EC0D4
:100020001DC01CC01BC011241FBECFE5D4E0DEBF25
:10003000CDBF10E0A0E6B0E0E4E1F1E002C0059041
:100040000D92A036B107D9F710E0A0E6B0E001C0EC
:100050001D92A036B107E1F702D05AC0D1CFCF939D
:10006000DF93CDB7DEB768970FB6F894DEBF0FBE4B
:10007000CDBFFE01319688E1DF011D928A95E9F737
:100080008FE390E09A83898386E090E09C838B8362
:100090008BE590E09E838D838FE490E098878F833B
:1000A00086E690E09A8789878DE690E09C878B872B
:1000B0008DE790E09E878D8787E090E0988B8F8713
:1000C0008FE790E09A8B898B87E690E09C8B8B8BF7
:1000D0008FEF81BB80E090E020E030E0FC01EE0F8C
:1000E000FF1F41E050E04C0F5D1FE40FF51F408102
:1000F00042BB4FEF54E36CE0415050406040E1F7A9
:1001000000C0000001968C30910544F3C901E6CF90
:04011000F894FFCF91
:00000001FF
