:1000000012C02CC02BC02AC029C028C027C026C0BF
:1000100025C024C023C022C021C020C01FC01EC0D4
:100020001DC01CC01BC011241FBECFE5D4E0DEBF25
:10003000CDBF10E0A0E6B0E0E8E3F1E002C005903B
:100040000D92AE36B107D9F710E0AEE6B0E001C0D0
:100050001D92AE36B107E1F738D06CC0D1CF18BAD7
:1000600082BBC19A88EA91E60197F1F718BA089520
:1000700091E098BB82BBC19AE8EAF1E63197F1F7CB
:1000800098BB089518BA88E382BBC19A28EA31E682
:10009000C9010197F1F718BA18BA86E082BBC19A74
:1000A000C9010197F1F718BA18BA8EE082BBC19A5C
:1000B000C9010197F1F718BA18BA81E082BBC19A59
:1000C000C9010197F1F718BA0895DF93CF93CDB71F
:1000D000DEB72D970FB6F894DEBF0FBECDBFDE01A1
:1000E0001196E0E6F0E08DE001900D928150E1F78D
:1000F0008FEF81BB87BBC6DFFE01319661E048EA26
:1001000051E69E01225F3F4F819168BB82BBC19A3D
:10011000CA010197F1F768BBE217F307A9F780E07E
:1001200090E02D960FB6F894DEBF0FBECDBFCF91F5
:08013000DF910895F894FFCF60
:0E01380072616468696B6120677570746100A4
:00000001FF
