:1000000012C02CC02BC02AC029C028C027C026C0BF
:1000100025C024C023C022C021C020C01FC01EC0D4
:100020001DC01CC01BC011241FBECFE5D4E0DEBF25
:10003000CDBF10E0A0E6B0E0E8E4F4E002C0059037
:100040000D92A036B107D9F710E0A0E6B0E001C0EC
:100050001D92A036B107E1F7A6D0F4C1D1CF18BAEE
:1000600082BBC19A87E893E10197F1F700C00000D5
:1000700018BA089591E098BB82BBC19AE7EAF1E60D
:100080003197F1F700C0000098BB089588E390E035
:10009000E6DF86E090E0E3DF8EE090E0E0DF81E005
:1000A00090E0DDDF0895EF92FF920F931F93CF93BF
:1000B000DF938C018A30910550F4C1E0D0E0202F0D
:1000C000012F0F2EFAE0EF2EFF24F02D18C0C1E013
:1000D000D0E0EAE0F0E09E01220F331FCC0FDD1FDD
:1000E000CC0FDD1FCC0FDD1FC20FD31FBF0183D18B
:1000F000CB016A30710578F7209709F710C0822F7D
:10010000902FBE0178D1182F092FCB01C096B2DFF6
:10011000212FCE01B7016FD1EB01209781F7DF913D
:10012000CF911F910F91FF90EF9008950F931F9320
:10013000CF93DF9317B880EC86B9349BFECF64B1C0
:1001400075B180E090E066D02AE037ED43EA5BE3EA
:10015000C7D0062F172FD82FC92F862F912FAD2F3D
:10016000BC2FBC01CD012AD0DC01CB019CDF8EE28B
:1001700090E080DF802F912FAD2FBC2FBC01CD01EF
:1001800020E030E048EC52E4ABD013D0DC01CB01EE
:1001900064E670E044D187DF80E186B9DF91CF91DA
:1001A0001F910F9108958FEF87BB81BB6FDFBEDF7B
:1001B000FDCF04D06894B1118DC0089570D088F03F
:1001C0009F5790F0B92F9927B751A0F0D1F0660F43
:1001D000771F881F991F1AF0BA95C9F712C0B1305E
:1001E00081F077D0B1E0089574C0672F782F882709
:1001F000B85F39F0B93FCCF3869577956795B3959D
:10020000D9F73EF490958095709561957F4F8F4F0B
:100210009F4F0895E89409C097FB3EF49095809510
:10022000709561957F4F8F4F9F4F9923A9F0F92FBC
:1002300096E9BB279395F695879577956795B7953A
:10024000F111F8CFFAF4BB0F11F460FF1BC06F5F20
:100250007F4F8F4F9F4F16C0882311F096E911C032
:10026000772321F09EE8872F762F05C0662371F053
:1002700096E8862F70E060E02AF09A95660F771F67
:10028000881FDAF7880F9695879597F9089557FD97
:100290009058440F551F59F05F3F71F04795880FF4
:1002A00097FB991F61F09F3F79F08795089512168B
:1002B00013061406551FF2CF4695F1DF08C0161637
:1002C00017061806991FF1CF8695710561050894E8
:1002D0000895E894BB2766277727CB0197F90895FF
:1002E0000BD078C069D028F06ED018F0952309F0B3
:1002F0005AC05FC01124EECFCADFA0F3959FD1F39F
:10030000950F50E0551F629FF001729FBB27F00DC3
:10031000B11D639FAA27F00DB11DAA1F649F662718
:10032000B00DA11D661F829F2227B00DA11D621F67
:10033000739FB00DA11D621F839FA00D611D221F21
:10034000749F3327A00D611D231F849F600D211D05
:10035000822F762F6A2F11249F5750408AF0E1F0A8
:1003600088234AF0EE0FFF1FBB1F661F771F881FF1
:1003700091505040A9F79E3F510570F014C0AACF8C
:100380005F3FECF3983EDCF3869577956795B795DC
:10039000F795E7959F5FC1F7FE2B880F911D969506
:1003A000879597F9089597F99F6780E870E060E076
:1003B00008959FEF80EC089500240A9416161706FE
:1003C00018060906089500240A9412161306140646
:1003D00005060895092E0394000C11F4882352F0A9
:1003E000BB0F40F4BF2B11F460FF04C06F5F7F4F61
:1003F0008F4F9F4F0895AA1BBB1B51E107C0AA1F37
:10040000BB1FA617B70710F0A61BB70B881F991FB5
:100410005A95A9F780959095BC01CD01089597FB59
:10042000092E07260AD077FD04D0E5DF06D000208C
:100430001AF4709561957F4F0895F6F79095819520
:080440009F4F0895F894FFCFCF
:00000001FF
