:1000000012C02CC02BC02AC029C028C027C026C0BF
:1000100025C024C023C022C021C020C01FC01EC0D4
:100020001DC01CC01BC011241FBECFE5D4E0DEBF25
:10003000CDBF10E0A0E6B0E0E0E1F3E002C0059043
:100040000D92A036B107D9F710E0A0E6B0E001C0EC
:100050001D92A036B107E1F769D058C1D1CF15BACA
:1000600088BBA99A87EA91E60197F1F700C00000E2
:1000700015BA089591E095BB88BBA99AE7EAF1E625
:100080003197F1F700C0000095BB089588E390E038
:10009000E6DF86E090E0E3DF8EE090E0E0DF81E005
:1000A00090E0DDDF0895EF92FF920F931F93CF93BF
:1000B000DF938C018A30910550F4C1E0D0E0202F0D
:1000C000012F0F2EFAE0EF2EFF24F02D18C0C1E013
:1000D000D0E0EAE0F0E09E01220F331FCC0FDD1FDD
:1000E000CC0FDD1FCC0FDD1FC20FD31FBF01FAD015
:1000F000CB016A30710578F7209709F710C0822F7D
:10010000902FBE01EFD0182F092FCB01C096B2DF80
:10011000212FCE01B701E6D0EB01209781F7DF91C7
:10012000CF911F910F91FF90EF9008958F929F9222
:10013000AF92BF92CF92DF92EF92FF920F931F93F5
:10014000CF93DF93CDB7DEB7AA970FB6F894DEBF93
:100150000FBECDBF8E010F5F1F4F84E1D8011D92EE
:100160008A95E9F785E489835EE45A8324E52B8345
:100170008C8392E59D8330E23E8330E53F8331E41A
:10018000388743E549874A8747E54B874FE44C87E3
:100190009D8764E46E870F2EF5E1EF2EFF24F02D8E
:1001A000EC0EFD1E78E0F70111927A95E9F77DE4F7
:1001B0007D8B3E8B2F8B33E4388F78E4798F8A8F59
:1001C0006B8FFE017D966AE0DF011D926A95E9F76B
:1001D00069E46D8F5E8F3F8F48A399A39AA38BA389
:1001E0003CA32DA380E390E3A7E3B0E08FA398A7FF
:1001F000A9A7BAA78FEF87BB84BB48DFF80181911D
:100200008F0190E037DF0E151F05C1F78FA18823FE
:1002100071F18E01095D1F4FAA24BB240F2EF3E359
:10022000EF2EF02DFF246894F4F80F2EF6E8DF2E61
:10023000F02D8824992483940F2EF0E8CF2EF02DF2
:1002400025DFE9B8FAB8D0BC5F9BFECF8AE290E028
:1002500011DF9CB1D8018D918D0198135401CBB859
:10026000F8018081882361F7A114B104A1F48E0103
:100270000B5E1F4F0F2EFDE1EF2EFF24F02DEC0E35
:10028000FD1ED8018D918D0190E0F4DE0E151F0545
:10029000C1F7AA9A12C08E01035E1F4F0F2EF7E21C
:1002A000EF2EFF24F02DEC0EFD1EF80181918F0141
:1002B00090E0E0DE0E151F05C1F780E090E0AA9601
:1002C0000FB6F894DEBF0FBECDBFDF91CF911F9167
:1002D0000F91FF90EF90DF90CF90BF90AF909F90E5
:1002E0008F900895AA1BBB1B51E107C0AA1FBB1F1B
:1002F000A617B70710F0A61BB70B881F991F5A95B2
:10030000A9F780959095BC01CD010895F894FFCF91
:00000001FF
