:1000000012C02CC02BC02AC029C028C027C026C0BF
:1000100025C024C023C022C021C020C01FC01EC0D4
:100020001DC01CC01BC011241FBECFE5D4E0DEBF25
:10003000CDBF10E0A0E6B0E0E4ECF5E002C0059032
:100040000D92A036B107D9F710E0A0E6B0E001C0EC
:100050001D92A036B107E1F764D1B2C2D1CF18BA70
:1000600082BBC19A87E893E10197F1F700C00000D5
:1000700018BA089591E098BB82BBC19AE7EAF1E60D
:100080003197F1F700C0000098BB089588E390E035
:10009000E6DF86E090E0E3DF8EE090E0E0DF81E005
:1000A00090E0DDDF0895EF92FF920F931F93CF93BF
:1000B000DF938C018A30910550F4C1E0D0E0202F0D
:1000C000012F0F2EFAE0EF2EFF24F02D18C0C1E013
:1000D000D0E0EAE0F0E09E01220F331FCC0FDD1FDD
:1000E000CC0FDD1FCC0FDD1FC20FD31FBF0141D2CC
:1000F000CB016A30710578F7209709F710C0822F7D
:10010000902FBE0136D2182F092FCB01C096B2DF37
:10011000212FCE01B7012DD2EB01209781F7DF917E
:10012000CF911F910F91FF90EF9008954F925F92A2
:100130006F927F928F929F92AF92BF92CF92DF92F7
:10014000EF92FF920F931F93CF93DF930F2EFCE359
:100150004F2E5524F02D0F2EF0ECFF2EF02D0F2EEC
:10016000F4E6AF2EBB24F02DEE246894E4F8992435
:1001700093948824689481F881E090E070DF0F2EDA
:10018000FCE36F2E7724F02D81E090E068DF0F2EE6
:10019000FCE3CF2EDD24F02D17B8F6B8349BFECF4C
:1001A00064B175B180E090E0F3D02AE037ED43EA26
:1001B0005BE354D1C62FD72F182F092F862F9D2FE1
:1001C000A12FB02FBC01CD01B7D0DC01CB016BDF7B
:1001D0008EE290E04FDF8C2F9D2FA12FB02FBC011E
:1001E000CD0120E030E048EC52E438D1A0D0DC0171
:1001F000CB01B501D2D157DFE6B88AE390E03ADF10
:1002000097B8F6B8349BFECF64B175B180E090E04A
:10021000BFD02AE037ED43EA5BE320D1C62FD72FCA
:10022000182F092F862F9D2FA12FB02FBC01CD0194
:1002300083D0DC01CB0137DF8EE290E01BDF8C2F17
:100240009D2FA12FB02FBC01CD0120E030E048EC64
:1002500052E404D16CD0DC01CB01B5019ED123DF87
:10026000E6B88AE390E006DF87B8F6B8349BFECFA5
:1002700064B175B180E090E08BD02AE037ED43EABD
:100280005BE3ECD0C62FD72F182F092F862F9D2F79
:10029000A12FB02FBC01CD014FD0DC01CB0103DF7A
:1002A0008EE290E0E7DE8C2F9D2FA12FB02FBC01B6
:1002B000CD0120E030E048EC52E4D0D038D0DC0171
:1002C000CB01B5016AD1EFDEE6B880E890E0C7DE89
:1002D0008CE090E0C4DE0894C108D108C114D104B8
:1002E00009F05ACF0894610871086114710409F08B
:1002F0004BCF0894410851084114510409F03CCFF8
:10030000DF91CF911F910F91FF90EF90DF90CF90F1
:10031000BF90AF909F908F907F906F905F904F9025
:1003200008958FEF87BB81BBB1DE00DFFDCF04D026
:100330006894B1118DC0089570D088F09F5790F0E7
:10034000B92F9927B751A0F0D1F0660F771F881FFA
:10035000991F1AF0BA95C9F712C0B13081F077D061
:10036000B1E0089574C0672F782F8827B85F39F0FF
:10037000B93FCCF3869577956795B395D9F73EF459
:1003800090958095709561957F4F8F4F9F4F089501
:10039000E89409C097FB3EF490958095709561951F
:1003A0007F4F8F4F9F4F9923A9F0F92F96E9BB27D5
:1003B0009395F695879577956795B795F111F8CF51
:1003C000FAF4BB0F11F460FF1BC06F5F7F4F8F4FBC
:1003D0009F4F16C0882311F096E911C0772321F0B2
:1003E0009EE8872F762F05C0662371F096E8862F4A
:1003F00070E060E02AF09A95660F771F881FDAF7A1
:10040000880F9695879597F9089557FD9058440F52
:10041000551F59F05F3F71F04795880F97FB991F63
:1004200061F09F3F79F08795089512161306140620
:10043000551FF2CF4695F1DF08C0161617061806AD
:10044000991FF1CF86957105610508940895E89488
:10045000BB2766277727CB0197F908950BD078C083
:1004600069D028F06ED018F0952309F05AC05FC00B
:100470001124EECFCADFA0F3959FD1F3950F50E082
:10048000551F629FF001729FBB27F00DB11D639F46
:10049000AA27F00DB11DAA1F649F6627B00DA11DEC
:1004A000661F829F2227B00DA11D621F739FB00D92
:1004B000A11D621F839FA00D611D221F749F332702
:1004C000A00D611D231F849F600D211D822F762F9B
:1004D0006A2F11249F5750408AF0E1F088234AF098
:1004E000EE0FFF1FBB1F661F771F881F91505040E4
:1004F000A9F79E3F510570F014C0AACF5F3FECF3FF
:10050000983EDCF3869577956795B795F795E795CF
:100510009F5FC1F7FE2B880F911D9695879597F9E0
:10052000089597F99F6780E870E060E008959FEF75
:1005300080EC089500240A9416161706180609067A
:10054000089500240A941216130614060506089549
:10055000092E0394000C11F4882352F0BB0F40F4D1
:10056000BF2B11F460FF04C06F5F7F4F8F4F9F4F11
:100570000895AA1BBB1B51E107C0AA1FBB1FA617EA
:10058000B70710F0A61BB70B881F991F5A95A9F73C
:1005900080959095BC01CD01089597FB092E072603
:1005A0000AD077FD04D0E5DF06D000201AF470955C
:1005B00061957F4F0895F6F7909581959F4F089527
:0405C000F894FFCFDD
:00000001FF
