:100000000C942A000C9447000C9447000C94470071
:100010000C9447000C9447000C9447000C94470044
:100020000C9447000C9457000C9447000C94470024
:100030000C9447000C9447000C9447000C94470024
:100040000C9447000C9447000C9447000C94470014
:100050000C94470011241FBECFE5D4E0DEBFCDBF16
:1000600010E0A0E6B0E0EAEDF0E002C005900D92ED
:10007000A036B107D9F710E0A0E6B0E001C01D92AC
:10008000A136B107E1F70E9449000C946B000C9473
:10009000000083B7846083BF89B7816089BF12BEC7
:1000A000109260008FEF87BB789488BB08951F92F1
:1000B0000F920FB60F921124809160008F5F809392
:1000C0006000809160008430B9F788B3809588BB68
:0A00D00010926000F1CFF894FFCF0A
:00000001FF
