:1000000012C02CC02BC02AC029C028C027C026C0BF
:1000100025C024C023C022C021C020C01FC01EC0D4
:100020001DC01CC01BC011241FBECFE5D4E0DEBF25
:10003000CDBF10E0A0E6B0E0E2EBF0E002C005903A
:100040000D92A036B107D9F710E0A0E6B0E001C0EC
:100050001D92A036B107E1F726D029C0D1CF18BA3A
:1000600082BBC19A87EA91E60197F1F700C00000D0
:1000700018BA089591E098BB82BBC19AE7EAF1E60D
:100080003197F1F700C0000098BB089588E390E035
:10009000E6DF86E090E0E3DF8EE090E0E0DF81E005
:1000A00090E0DDDF08958FEF81BB87BBFFCFF89431
:0200B000FFCF80
:00000001FF
