:1000000012C02CC02BC02AC029C028C027C026C0BF
:1000100025C024C023C022C021C020C01FC01EC0D4
:100020001DC01CC01BC011241FBECFE5D4E0DEBF25
:10003000CDBF10E0A0E6B0E0E0E8F0E002C005903F
:100040000D92A036B107D9F710E0A0E6B0E001C0EC
:100050001D92A036B107E1F702D010C0D1CF8FEFCB
:1000600087BB43E332E126E890E849B93AB920BDBD
:100070005F9BFECF8CB188BB9BB9F7CFF894FFCFC5
:00000001FF
