:1000000012C02CC02BC02AC029C028C027C026C0BF
:1000100025C024C023C022C021C020C01FC01EC0D4
:100020001DC01CC01BC011241FBECFE5D4E0DEBF25
:10003000CDBF10E0A0E6B0E0ECE9F1E002C0059031
:100040000D92A036B107D9F710E0A0E6B0E001C0EC
:100050001D92A036B107E1F77AD09EC0D1CFD0E192
:10006000CFEED4BBC5BB2BD003D003D003D0F9CF88
:1000700008950895089518BA82BBC19A87E893E15C
:100080000197F1F700C0000018BA089591E098BBFD
:1000900082BBC19AE7EAF1E63197F1F700C00000B0
:1000A00098BB089588E390E0E6DF86E090E0E3DF28
:1000B0008EE090E0E0DF81E090E0DDDF0895F2DFA8
:1000C00081E390E0E3DF0895EF92FF920F931F9397
:1000D000CF93DF938C018A30910550F4C1E0D0E0DA
:1000E000202F012F0F2EFAE0EF2EFF24F02D18C045
:1000F000C1E0D0E0EAE0F0E09E01220F331FCC0F18
:10010000DD1FCC0FDD1FCC0FDD1FC20FD31FBF01C2
:100110002FD0CB016A30710578F7209709F710C00E
:10012000822F902FBE0124D0182F092FCB01C0960B
:10013000ADDF212FCE01B7011BD0EB01209781F756
:10014000DF91CF911F910F91FF90EF900895AADF5B
:100150008FEF81BB87BB83DF80E090E0089580E272
:1001600084BB8FED85BBABDF83DF83DF83DF089547
:10017000AA1BBB1B51E107C0AA1FBB1FA617B707CD
:1001800010F0A61BB70B881F991F5A95A9F78095E9
:0C0190009095BC01CD010895F894FFCFBC
:00000001FF
